:400000000080002011000000410300004103000008B5054B1A6803F53F5302331A6000F065FA00F095F900BFFA46004010B5054C237833B9044B13B10448AFF30080012371
:40004000237010BD6081FF1F00000000EC210000084B10B51BB108490848AFF300800848036803B910BD074B002BFBD0BDE81040184700BF000000006481FF1FEC210000BE
:40008000C880FF1F0000000008B500F0A1FCFEE708B562B60221002001F026F8014B01221A7008BD7C81FF1F01F056B82DE9F843002480460F461646A14603EB83031480D1
:4000C0005D00B94522D2C9EB0702402A94BFD2B2402294B2224608EB0901022001F0C4F8022001F0A5F830B92DB10120013D00F08DFDADB2F4E7022001F09AF848B13388F4
:4001000023444C4433801FFA84F9DAE70020BDE8F8831020BDE8F8832DE9F84303EB83035C00234B17461A78804689461E46A2B1254601F06BF830B92DB10120013D00F08F
:4001400065FDADB2F5E701F061F8A8B101F064F801F062F9002333700EE001F05DF858B101F054F840B101F057F905E04CB1012000F04CFD013CA4B2032001F059F80128D7
:40018000F4D1032001F054F801280BD14A46402A28BF40224146032001F0B8F838800020BDE8F88300233B801020BDE8F88300BF7C81FF1FF8B572B6504B61221A700622E2
:4001C000A3F5A0631A705222A3F580731A704C4B4C4A1B784C4EDBB2137040F626524B4B19251A8041F25122002423F8022C33784FF4F07003F0010343EA440401F07CFF92
:40020000013D04F003041CD0032CF0D1404B4FF480721A8007221A703E4A002448211470917002221C705C7103F8032C012283F8FC27394A394D1378062643F0040313701D
:4002400000E0FEE706FB045300219A881868013401F0BFFF082CF5D100221146304C04F1300554F8210005EB420320F0FF06C0B2024405EB4200013303300233984206D0B4
:4002800013F8037C13F802EC07F806E0F5E701310C29E6D1234A244C137843F002031370137C43F002031374204BA2F57E4218685968133A03C2198911801D4953F80A2F39
:4002C0000A605A684A601B4A137843F008031370194B02F5AA521B780C32DBB203F007011B0911705370154B44221A70A3F5A653163B0FCB07C42380F8BD00BF00480040E9
:400300000F010049A146004025420040224200400440004006400040E8460040F02100002022000003500140B04300408A2200001251004022430040CF0100497658004045
:4003400008B501F00FFF03680C2B00D1FEE7FEE780B51148114B0025C0B1A3F1100192C922460439161BB74204D051F8046F42F8046BF7E7114653F8046C8C1AA64202D0AC
:4003800041F8045BF9E701381033E5E701F0F0FEFFF77AFEFEE700BF0100000048240000104A114B10B41A60104A114C1368114843F4007313600023032B98BF54F823204C
:4003C0004FEA830188BF0C4A0133302B4250F3D10A4B1A780A4B1A700A4B064A10BC1A60FFF7E8BE0004FA050CED00E014ED00E0000000000080FF1F41030000BC76004060
:40040000C080FF1F08ED00E000470023014422B1013A885C0344DBB2F9E71846704701380B284FD8DFE800F0060C12181E24302A363C42480902C1F57F3101F5707147E092
:400440000902C1F57F3101F2C13144E00902C1F57F3101F2C53136E00902C1F57F3101F2C93138E00902C1F57F3101F574712FE00902C1F57F3101F2D13129E00902C1F591
:400480007F3101F2D6311EE00902C1F57F3101F2D23118E00902C1F57F3101F5757112E00902C1F57F3101F5767114E00902C1F57F3101F577710BE00902C1F57F3101F513
:4004C000787108E000210B78487843EA002070470878C0B270470B784A788878000440EA02201843CB7840EA0360704710B50B4A137803F0C003802B0ED1002414702146AF
:400500000220FFF78CFF38B121460220FFF787FFBDE81040FFF778BF10BD00BFFA460040F8B5014606460320FFF779FF314605460420FFF774FF013500EB052531460320F7
:40054000FFF76DFF0024274601300002854209D910F8013B5A1ED2B2FD2A1C4498BF0127E4B2F3E731460320FFF759FF114B01309D424FEA00204FEAD00014BFED084FF435
:400580000045A84206D200F190431B7801301C44E4B2F6E731460120FFF741FF6442E4B2844204D1002F0CBF06200020F8BD0620F8BD00BFC0FF03002DE9F04FADF51F7D50
:4005C000074600F05DFA10B1002000F015FBFFF75FFD62B6002F18BF3B464FF000052E4608BFFF2301934FF00A08019B02AA4FF4967108A8FFF790FD1FB108F1FF385FFAF1
:4006000088F8B8F1000F02D00028EED101E0002858D1BDF80820062A5ED99DF82030012B5AD1BDF82240E31D934252D8B3F5967F4FD808AB23449B79172B4DD1231D9BB202
:4006400000220DF11F002BB1C15C013B0A4492B29BB2F8E708AB191948790B79524243EA002392B2934239D00824002101238DF820300A1D0B0A8DF82330ADF80A108DF87A
:4006800021408DF8221092B200230DF11F002AB1845C013A23449BB292B2F8E75B429BB209AA53541B0A0DF12502535417220DF126035A54073196230DF10A0289B208A8A8
:4006C000FFF7F4FC002F90D0002E00F0738101268BE70324C9E71EBB0424C6E79DF821309DF824B0A3F131020A2A00F2CA8001A151F822F0D706000039070000830800002A
:400700007D070000E907000083080000F1070000190800007D070000390800006B080000002CD9D12046FFF7FBFEB0FA80F040098DF82400314699E7002ECDD0012CCBD1A7
:40074000BBF1030FC8D89D4B1B681B68C3F30742934502D1C3F3072303E08CBF00234FF480738DF824301B0A8DF825300024FF238DF826308DF82740042177E7342B10D174
:40078000002EA9D0032CA7D1ABF140033F2B8CBF4FF4907510252A46002153A801F019FD03E0002E98D0022C96D953AB033C224658190DF1270101F001FDABF140032C44B7
:4007C0003F2BA4B204D800F0EFF98022102303E04FF480724FF49073A3427CD1BDF82550AA427CD801263EE0002E3FF475AFDCE0002E3FF471AF04EB050BBBF5967F3FF7B5
:4008000068AF53AB224609A95819002401F0D6FC1FFA8BF5214629E7002C7FF45DAF684A05AB92E8030009AA83E8030082E8030025460126082119E7002E3FF44DAF032CC2
:400840007FF44AAFABF140023F2ABDF8259007D800F0AAF9B9F17F0F4FEA091169D902E0B9F1FF0F71D90A24FFE60020FFF758FE10B9544A80231370FFF716FC00F0BEF97D
:400880002AE7514A1268002A4AD0002E4BD0ADF80E404FF0000B09AC05A98DF80C300494CDF814B0CDF818B0079403A89047BDF81810B1F5937F02D3079BA34205D0079BF1
:4008C00003B929B99DF81440D0E60E245946CDE60E241946CAE60025012603241EE0BBF13F0F0ED8354A05EB0B21126889B21068C0F30F2210F0FF0F1CBF013292B28A42CD
:4009000013D8294653AA584600F0E8F800280CBF00240A2400F098F9002501262946A5E605241146A2E605249FE6002501260A24F4E710222548FFF768FD8246CAF100025C
:400940008DF824200024012190E64FEA0B2404EB09014FF4807209020020FFF756FDBBF13F0F8246EAD804F110744C4464010021085D013100EB0A0220295FFA82FAF7D161
:40098000BBF1030FDAD1B9F1FF0FD7D100210520FFF745FDC0EB0A00C4B200210620FFF73EFD201A5FFA80FAC8E70FB93D461CE600258CE60DF51F7DBDE8F08FCC80FF1F81
:4009C0009C220000FA4600408081FF1F0080004038B50020FFF7A4FD154C0021236800281A68084614BF06250025FFF70EFD63681B78181A00F0FF00834202D123681B68E8
:400A000013B9002000F0F8F80A4C237803F0C003402B00D01DB100202070FFF7CDFD3220FFF7CAFD80232370BDE8384000F0E6B8CC80FF1FFA46004038B500F077F900F0B3
:400A400015FAC0B900F04CFA0728044610D10B4D2A780A4B910703D4012000F0EDF8F7E71A78920704D51B789B0814BF0724002400F01CFA00E00424204638BD224700405E
:400A800070B5FFF7D9FF044610BB00F04FF900F0EDF9E0B9012000F0CFF907280AD10D4D02210D4800F054F902280A4E05D02B789B07F5D54FF0FF3406E033789A0703D4B4
:400AC000012000F0B9F8F8E700F0F0F900E00424204670BD224700409081FF1F41282DE9F04105460E46174698460AD8441F3A2C8CBF002401243F2804D8B1F5807F30D850
:400B000006E00124812E28BF0124B8F1100F28D13FB334BB00F0AAF928BB43463A463146284600F033F9072834D1DFF8748098F800201B4B12F0020F1F4603D1012000F05B
:400B40007BF8F4E71A78900706D51B789B080CD002E01A78920719D44FF0FF3400F0A6F91AE0012418E0042416E00E4A314653782846127800F040F907280BD13A78084B16
:400B80009107E6D4012000F057F8F7E71B789B08E4D0E1E70446E1E72046BDE8F08100BF224700409081FF1F08B501F0ADFA0F4A137843F008031370137C43F00803137480
:400BC0000B4BC8221A700B4A137843F010031370137C43F01003137402F5557213789B06FCD5BDE8084001F093BA00BFA043004001470040AC43004001BE7047024A13785A
:400C000043F0010313707047F646004038B50446084DB4F5004F05D9286801F06DFAA4F50044F6E7034B58686043BDE8384001F063BA00BFD480FF1F024B1B7A584301F048
:400C40005BBA00BFD480FF1F08B501F05DFA00BF00BF00BF00BF00BF00BF00BF00BF00BF00BF00BF00BF00BF00BF00BF00BF064A13889BB243F0040313801388BFF36F8FE9
:400C8000BDE8084001F044BA00480040054A00F01F00126800F1100352F8230042F82310704700BF08ED00E000F01F0000F16040490100F56440C9B201707047134B144AED
:400CC0001B78DBB20360127843EA0223114A0360127843EA0243104A0360127843EA026303600E4B0E4A1B78DBB24360127843EA02230C4A4360127843EA02430A4A436063
:400D0000127843EA02634360704700BF0301004904010049EC460040020100490101004900010049050100490601004908B501F0EBF9064A137843F008031370137C43F001
:400D400008031374BDE8084001F0E2B9A04300402DE9F0410E464B1E0A4FDFF82C80451EC418A5420BD03B78DB0703D40120FFF763FFF8E798F8003005F8013FF1E7304655
:400D8000BDE8F081224700402047004070B5184D2C78A60727D5174CB6262670D5262670022626702D78AD071FD416462070B51AADB2AB4203D916F8015B2570F7E7B3F51E
:400DC000807F01D0072070BD3F28FBD800F5103001EB0021490100235A5C0133D2B2202B2270F9D1EEE7042070BD092070BD00BF224700402047004070B50D4D2C78A60776
:400E000012D50C4CB6262670D8262670052626702D78AD070AD42070080AC9B22070217022702370072070BD042070BD092070BD22470040204700400A4A137899070CD567
:400E4000094BB6211970E12119700E2119701278920704D4187007207047042070470920704700BF224700402047004038B501F04BF90C4A147874B901250B4915700B68AD
:400E80002B400AD00B6823F001030B6000BF00BF00BF556002E0042400E01C4601F038F9204638BD8481FF1F0400084010B501F02BF9094B00215A681970012A08D1074CDD
:400EC000226842F00102226000BF00BF00BF5960BDE8104001F01CB98481FF1F04000840074B1B789B0708D5064BB6221A70E0221A700D221A70072070470420704700BFBD
:400F00002247004020470040F8B501F0FDF8404A01261378022543F001031370137C3D4C43F0010313743C4B02F5E3521E700B3203F8945C1378074603F07F031370002082
:400F4000FFF77AFE2378354A03F0F90323701378304603F0DF031370237833432370FFF76BFE2820FFF768FE2D4B28461A7802F07F021A701A7802F0BF021A7023782B431A
:400F80002370FFF759FE2378384643F004032370244B00241C705C7001F0BAF807211720FFF782FE20491720FFF770FE07211820FFF77AFE1D491820FFF768FE07211520DF
:400FC000FFF772FE1A491520FFF760FE20460721FFF76AFE17492046FFF758FE30460721FFF762FE14493046FFF750FE28460721FFF75AFE11492846FFF748FE07210C205A
:40100000FFF752FEBDE8F8400D490C20FFF73EBEA5430040944300409D60004012600040F8510040846000407B190000A517000079190000E51800001119000041190000DB
:401040007F19000008B51C4B1C4A1870002313701B4A13701B4A13701B4A13701B4A13701B4A13701B4A13701B4B4FF400021A604FF080721A604FF400121A6001221A6074
:4010800002221A6004221A60144B19B91A7802F0FE0202E01A7842F001021A70104B03221A70802203F8202C012001F025F80D4B04221A7008BD00BFA581FF1FA881FF1FD1
:4010C000C081FF1FC381FF1FB881FF1FC281FF1FC581FF1FA481FF1F00E100E009600040286000401260004070B5074C054623780E461BB9FFF708FF0123237031462846CD
:40110000BDE87040FFF79EBF8C81FF1F0A4A002313700A4A13700A4A13700A4A13700A4A13700A4A13700A4A13700A4B03221A70802203F8202C7047A881FF1FC081FF1F8E
:40114000C381FF1FB881FF1FC281FF1FC581FF1FA481FF1F2860004008B500F0D5FF214A137803F07F031370937A03F0FB039372A2F5E352033A137803F0FE031370137CDA
:4011800003F0FE031374184B1A7842F080021A701A7842F040021A7000F0BAFF134B4FF400021A604FF080721A604FF400121A6001221A6002221A6004221A6000F092FF55
:4011C0000B4B4FF480521A600A4A002313700A4A13700A4A13700A4A13700A4A13700A4A137008BD08600040F851004080E100E080E200E0C081FF1FC381FF1FB881FF1F4C
:40120000C281FF1FC581FF1F8C81FF1F014B1878704700BFC381FF1F044B1A7802F0FF001AB118780022C0B21A707047C081FF1F024A0C2303FB002040787047C681FF1F3C
:40124000431E072B0CD8074A064B00010344805C5B7800F00F0043EA0020023880B2704700207047FC5F0040431E072BF0B531D8194B0C2505FB0035EC88184FA4B2C4F588
:401280000074A2424FF00C0404FB003488BFEA88E67884BFC2F5007292B2104C46EA12260501EE552C44D6B2667041B90C2202FB0030002343704379DBB2A370F0BD0E462A
:4012C000074F2F44751AADB2AA42EFD916F8015B3D72F7E7F0BD00BFC681FF1FFC5F004070600040431E072B0AD8064A0C2303FB002300225A705A79034BD2B200011A54FB
:40130000704700BFC681FF1FFE5F004038B505461446D1B1431E072B19D8FFF791FFA04203D22846FFF78CFF04460A4609482B011844531A9BB29C4203D9037A02F8013BD7
:40134000F7E72846FFF7CEFF02E00C4600E00024204638BD7060004070B5094C094DFF2100230C26E25C06FB0252927A824204BF194602230133DBB2012BF3D0084670BDA1
:401380009681FF1FC681FF1F10B51E4C2079FFF7E3FF237813F0800F63780DD0212B2ED1BDE81040184B07221A80184AC0EBC0001044586000F04CBADBB2202B0ED0222BD6
:4013C0001DD1A378124A22F81030124A135C43F002031354BDE8104000F01AB90A4A07230A491380C0EBC0030B445360094A135C43F001031354BDE8104000F04FBA0020CA
:4014000010BD00BF00600040AC81FF1FE480FF1F9E81FF1F9281FF1F10B5164A00231370154A164C137053702078C0B2431E072B01D8FFF757FF6078C0B2431E072B01D8FB
:40144000FFF750FF0E4A13788BB123787BB10D4B197861B11278082A09D8084A1278082A05D81878082894BF0020012010BD012010BD00BF8D81FF1F9281FF1F9881FF1F5C
:401480009481FF1F9681FF1FC37890F9020003F0030300280FDA032B15BF0C480C4802F00103C2F3800319BFC15442F00102C15442F0040207E0032B1FBF0648C2F3400374
:4014C000C15442F002021046704700BF9481FF1F9681FF1F9881FF1F30B51A4A1A491B4D0878138803449BB21380194A00231488D8B2A4B27CB1082B0CD050680078C0B200
:40150000E85450680133013050601088013880B21080ECE718460B780E4C082B0E4A00D040B10E4D2B7883F080032B700F232370022301E0022323701370094B18700870CC
:4015400030BD00BFA681FF1FA481FF1F00600040AC81FF1FC181FF1FA881FF1F3482FF1FC481FF1F074B02221A70074B80221A70064B0F221A70064A00231370054A01207E
:4015800013707047A881FF1F3482FF1FC181FF1FA481FF1FC481FF1F30B5164B16491B780A8803F00F03023BDBB21A4492B20A80124C134A0020118889B279B173B1556851
:4015C000215C013BC9B229705168DBB20131516011880130013989B21180ECE7094A1370094A137883F080031370084B0B221A7030BD00BF29600040A681FF1F00600040C1
:40160000AC81FF1FC481FF1F3482FF1FC181FF1F064A06231370064A01201370054B80221A70054B00221A70704700BFA881FF1FC181FF1F3482FF1FC481FF1F054B9A68BA
:401640003AB19A68044910709A680988518000229A607047AC81FF1FA681FF1F08B5124B1A78D2B21A701B78DBB21A0602D50F4A137008BD0220FFF7E1FF0D4B1B7803F0A1
:401680006003202B05D0402B06D043B900F0ECFB04E000F041FD01E000F01AFD10B9034B03221A7008BD00BF28600040C181FF1F0060004008B5084A084B012019781388D8
:4016C0000B449BB21380064B00221A70FFF7B6FF044B03221A7008BDA681FF1FA481FF1FA881FF1FC181FF1F08B50C4B1B78DBB2042B07D0062B09D0022B0DD1BDE80840E5
:40170000FFF7D8BFBDE80840FFF746BF0320FFF795FF034B03221A7008BD00BFA881FF1FC181FF1F08B5054B002201201A70FFF785FF034B03221A7008BD00BFA881FF1F43
:40174000C181FF1F08B50A4B1A7832B11A78094942F080020A7000221A70074B002201201A70FFF76BFF054B03221A7008BD00BFC281FF1F08600040A881FF1FC181FF1F12
:40178000074B1B78DBB2042B05D0062B05D0022B05D1FFF7A1BEFFF7C5BFFFF7D3BF7047A881FF1F38B51D4C2378DBB2DD0634D518060AD503F00F03012B2ED1FFF74EFF7B
:4017C000174B1B78190609D538BD5A0602D5FFF7D7FF03E09D0620D5FFF786FF23781B061BD4104B1A78104B1B7813430F4A13701278934211D10A4A0849154613782078ED
:40180000DBB2000605D41378DBB20B700B7803F00F0328788342F1D138BD38BD28600040C181FF1F3482FF1FC481FF1F29600040054A00231380054A916819B191680B705D
:4018400092685380704700BFA681FF1FAC81FF1F0E4808B503889BB213B9FFF783FE13E00B4B02221A700B4B00221A70FFF7E0FF094AD1799379028843EA012392B29342FC
:4018800038BF0380FFF728FE012008BDAC81FF1FA881FF1F3482FF1F0060004008B50C4B04221A700B4B80221A70FFF7C1FF0A4A0120D179937943EA012308490A8892B267
:4018C000934238BF0B80064B0B221A7008BD00BFA881FF1F3482FF1F00600040AC81FF1FC181FF1F084B01221A700F3B9B7C074B1A7B02F00302012A1EBFDA7B82F080020F
:40190000DA7301225A7370470B600040C681FF1F094B02221A700F3B93F82230074B1A7E02F00302012A1EBFDA7E82F08002DA7601225A76704700BF0B600040C681FF1F7C
:401940000B4B04221A700F3B93F83230094B93F8242002F00302012A1EBF93F8272082F0800283F82720012283F82520704700BF0B600040C681FF1F7047FFF7C7BB00F0F8
:40198000B1BB000070B50446184B88B003AA03F11006154618685968083303C5B3422A46F7D11B782B70FCB12223237001AD032328466370FFF782F9002220461146AB5C0F
:4019C00008AC04EB131414F8144C03F00F03847008AC234413F8143C0132082AC1700371417100F10400EAD108B070BDA42200002DE9F0411A4D01222E460C2080274FF0D4
:401A0000080E184B00FB025C14012344187016499CF805802144B8F1000F07D09CF8044024064CBF887081F802E000E08F7000FB0261CC880132E4B29C71CC88092AC4F35F
:401A40000724DC71CC88E4B21C71C988C1F307215971D6D1054BFF221A70BDE8F08100BFC681FF1F70600040FC5F00400A600040064B074A1B7802EBC30253681A7C824253
:401A800086BF03EBC003586900207047A581FF1FB82200002DE9F84F424B1A78002A7ED01878414D0138C0B2FFF7E2FFA8463F4AC3681478007ADFF800C1E4B203EBC00062
:401AC0000C2600274FF0010E834268D01A78A24263D11CF80420597891425ED19A7893F8039002F07F0206FB02FA05EB0A01CF7093F802B009F0030981F804B093F803B006
:401B000005F80AB0B3F804A0A1F808A093F902A0BAF1000F0BDAB9F1010F0CBF4FF007094FF00D0981F8059081F801E009E0B9F1010F0CBF4FF005094FF0090981F80590E6
:401B40004F704FEA02191A4906FB0282494481F802E0B2F808A0CAF3072A81F800A0B2F808A05FFA8AFA81F801A0B2F806A011495FFA8AFA494481F806A0B2F80690C9F3B1
:401B8000072981F80790B2F806905FFA89F981F80490D288C2F307224A71083394E7BDE8F88F00BFC381FF1FC681FF1FB881FF1FFC5F0040706000403282FF1F08B5064B80
:401BC00018780138C0B2FFF753FF20B143681B7900EBC300406908BDC381FF1F2DE9F74F00210B46564E0C2707FB01F501317219092973554FF000049370DFF84491D3704B
:401C00001381937253705371EED128B14D4A4E4B14701C7054705C704C4B1A78002A00F08C80187801270138C0B2FFF721FF80464368057ADB79ED0013F0400F444B4FF003
:401C4000000C1A784FF00C0A14BF42F0010202F0FE021A700AFB0796D8F80C40FBB204EB050B5C453AD0A07800F07F01B94233D13189B4F804E089B2714538BFA6F808E099
:401C80002178304A94F801E0515C8E4524D13071E178317094F90200E178002801F0030106DA01290CBF07210D217171012105E001290CBF05210921717100217170A17938
:401CC00001F0F701022907D16246194620460193FFF7DAFB8446019B0834C2E70137092FB8D1D8F80C200A35931C15440C210833AB4209D013F8082C13F80A0C02F07F02A4
:401D000001FB02929072F2E7FFF758FF114B0121186000230C2000FB0192D3801289013113449BB203F00102134409299BB2F2D103B0BDE8F04FFFF75BBE03B0BDE8F08F48
:401D4000C681FF1F3282FF1FA981FF1FC381FF1FC581FF1FBC81FF1F114B1B7903F07F035A1E072A19D80F490C2202FB031291781B0141F0010191700021D170517841F077
:401D800002015170127912F0800F074A1A4414BF8D2389239370FFF73BBC0020704700BF00600040C681FF1FFC5F004030B4194B1A7902F07F02531E072B27D8164B0C24BE
:401DC00004FB02339978154D01F0FE0199700021D97029461201505D114400F07F0050555A7802F0FD025A701A795B78120605D5012B01D18C7006E00D2303E0012B0CBF72
:401E0000082309238B7030BCFFF702BC002030BC704700BF00600040C681FF1FFC5F004010B50D4B0D4C21791878C9B20138C0B2FFF71EFE43681B798B4201D2022909D8CB
:401E4000074A0848535CDBB24354A3780120DBB2535410BD002010BDC381FF1F006000403282FF1FA981FF1F38B5884A884C13780021DBB221801806517840F188800A29E8
:401E800000F20181DFE811F05800FF00FF00FF00FF00FF000B00FF007900FF007D00D3787A49012B09D17B4B1A787B4B03EBC2035B685B686360122310E0CB78022B12D1EE
:401EC0008878FFF7D5FD002800F0DD80436863606368DA7863689B7843EA02232380BDE83840FFF7B5BCCB78032B21D16B4B00228878D5B2854203D3644A92783AB910E0C9
:401F0000187801320028F7D018780344F0E75F4A63499278097C914203D16248FFF732FD604B1A78002A00F0AE801A78228018E0BDE8384000F0F0B813F0030313D0022B68
:401F400040F0A1802380514B0C211B7903F07F02554B01FB02339A78544BD2B21A7000225A706360BBE702222280514A11784F4AC9B2117053706260B1E7012323804D4BC0
:401F8000EFE70123238013794B4A1344E9E701390A2978D8DFE801F037774F77067777770A7720009378454ADBB25AE0937803F0FF0153B93F4B1A78914260D01970404BA9
:401FC00001201870FFF70AFE59E0481EC0B2FFF74FFD0028EED156E0FFF722FF002852D02A4A384913791279DBB2D2B20A70364A3149D25CCB5C9A4241D0314B01221A706D
:40200000FFF748FD3BE003F00303012B2BD009D3022B38D11D4B9B78002B34D1BDE83840FFF7C4BE194B9B78012B2CD1204A137803F0FD0315E003F00303012B13D008D378
:40204000022B20D1114B9B78EBB9BDE83840FFF783BE0E4B9B78012B15D1154A137843F0020313700BE0094B1A79012A0BD898781B791649DBB2CA5C22EA0002CA54BDE851
:402080003840FFF7C5BA002038BD00BF00600040AC81FF1FA581FF1FB82200001C230000FE2300003782FF1FC681FF1F8E81FF1FC581FF1FC381FF1F3282FF1FC281FF1F94
:4020C000C081FF1FB881FF1FA981FF1F3582FF1F034B00201A78120648BF5B78704700BF00600040024B1878C0F38010704700BF8F450040000000000230800803D000BF0F
:4021000001380046FCD17047EFF3108072B6704780F31088704700BF0F4A137803F00303012B0AD0022B0DD113790C2103F07F020A4B01FB02339B7A00E01379DBB2022BEE
:4021400008D800E00023064A1268D35C022B01D1FFF71AB90020704700600040C681FF1FBC81FF1F014B1868704700BF5C81FF1F0E4B70B51E460E4C0025E41AA410A5424D
:4021800004D056F8253098470135F8E700F042F9084B094C1E46E41AA4100025A54204D056F8253098470135F8E770BD2024000020240000202400002824000010B5431EE9
:4021C0000A44914204D011F8014B03F8014FF8E710BD03460244934202D003F8011BFAE770470000002500009900000000000000005100401000205100405000C051004008
:40220000100000000140001000140140000800400140000A004C01400002005001402000014500400152004002170140021901400340014003410140034201400343014030
:402240000447014004480140024C0140015101407E027C40EA02EE0AEA02EE0A33813640CC709F01A640A7809F01A640A7809F01A640A78008080B040F40C20EAE40AF8156
:40228000EA40EE50AC08AF44002A4000000000000000C000000B0B00000000006910162E003C0101303132333435363738394142434445460000000001000000C02200004F
:4022C00001000000FE230000000000000000000001000000D822000001000000BB230000030000000223000000000000000000000000000000000000000000000023000097
:40230000020A00008103080002000100820240000A000100030240000A000203040309042C0343007900700072006500730073002000530065006D00690063006F006E00C5
:4023400064007500630074006F007200100355005300420055004100520054003803430044004300200043006F006D006D0075006E00690063006100740069006F006E0018
:40238000200049006E007400650072006600610063006500260343004400430020004400610074006100200049006E007400650072006600610063006500000902430002DE
:4023C00001018032090400000102020103052400100104240202052406000105240100010705810308000A09040100020A000004070582024000000705030240000012015E
:40240000000202000008B40432F201000102800143000000F8B500BFF8BC08BC9E46704751000000A1030000F8B500BFF8BC08BC9E4670472D00000048240000C880FF1FFA
:40244000980000000001000000000000E4210000E821000000803B7F77FE0000420000004900E20300C2010000000800C20100000008A1200000000002000000000000003D
:4024800000000000000000000000000000000000000000000000000000000000102400000000000000000000000000000000000000000000000000000000000000000000E8
:4024C00000000000000000000000000000000000000000000000000000000000FC80FF1F000000000000000000000000000000000000000000000000000000000000000042
:40250000000000000000000000000000000000000000000000000000000000000000000000000000000000000000000000000000000000000000000000000000000000009B
:40254000000000000000000000000000000000000000000000000000000000000000000000000000000000000000000000000000000000000000000000000000000000005B
:40258000000000000000000000000000000000000000000000000000000000000000000000000000000000000000000000000000000000000000000000000000000000001B
:4025C00000000000000000000000000000000000000000000000000000000000000000000000000000000000000000000000000000000000000000000000000000000000DB
:020000040003F7
:40FFC00000000000000000000000000000000000000000000100010000000000000000000000000000000000000000000000000000000000000000000000000000000000FF
:0200000480007A
:4000000000000000000000000000000000000000000000000000000000000000000000000000000000000000000000000000000000000000000000000000000000000000C0
:400040000000000000000000000000000000000000000000000000000000000000000000000000000000000000000000000000000000000000000000000000000000000080
:400080000000000000000000000000000000000000000000000000000000000000000000000000000000000000000000000000000000000000000000000000000000000040
:4000C0000000000000000000000000000000000000000000000000000000000000000000000000000000000000000000000000000000000000000000000000000000000000
:0200000490006A
:0400000000004005B7
:0200000490105A
:04000000BC90ACAF55
:0200000490303A
:0200000090026C
:0200000490402A
:4000000000000000000000000000000000000000000000000000000000000000000000000000000000000000000000000000000000000000000000000000000000000000C0
:400040000000000000000000000000000000000000000000000000000000000000000000000000000000000000000000000000000000000000000000000000000000000080
:400080000000000000000000000000000000000000000000000000000000000000000000000000000000000000000000000000000000000000000000000000000000000040
:4000C0000000000000000000000000000000000000000000000000000000000000000000000000000000000000000000000000000000000000000000000000000000000000
:0200000490501A
:0C00000000012E16106900012E23A06BD9
:00000001FF